{
  "_format": "hh-sol-artifact-1",
  "contractName": "Test",
  "sourceName": "contracts/test.sol",
  "abi": [
    {
      "inputs": [],
      "stateMutability": "nonpayable",
      "type": "constructor"
    },
    {
      "inputs": [
        {
          "internalType": "address",
          "name": "_admin",
          "type": "address"
        }
      ],
      "name": "addHospital",
      "outputs": [],
      "stateMutability": "nonpayable",
      "type": "function"
    },
    {
      "inputs": [],
      "name": "getDoctors",
      "outputs": [
        {
          "internalType": "address[]",
          "name": "",
          "type": "address[]"
        }
      ],
      "stateMutability": "view",
      "type": "function"
    },
    {
      "inputs": [
        {
          "internalType": "address",
          "name": "",
          "type": "address"
        }
      ],
      "name": "hospitals",
      "outputs": [
        {
          "internalType": "address",
          "name": "admin",
          "type": "address"
        }
      ],
      "stateMutability": "view",
      "type": "function"
    }
  ],
  "bytecode": "0x608060405234801561001057600080fd5b5061040e806100206000396000f3fe608060405234801561001057600080fd5b50600436106100415760003560e01c80631b470bc714610046578063b13d5d9414610062578063f093cf8014610080575b600080fd5b610060600480360381019061005b91906102a1565b6100b0565b005b61006a610133565b604051610077919061038c565b60405180910390f35b61009a600480360381019061009591906102a1565b610200565b6040516100a791906103bd565b60405180910390f35b806000808373ffffffffffffffffffffffffffffffffffffffff1673ffffffffffffffffffffffffffffffffffffffff16815260200190815260200160002060000160006101000a81548173ffffffffffffffffffffffffffffffffffffffff021916908373ffffffffffffffffffffffffffffffffffffffff16021790555050565b60606000803373ffffffffffffffffffffffffffffffffffffffff1673ffffffffffffffffffffffffffffffffffffffff1681526020019081526020016000206001018054806020026020016040519081016040528092919081815260200182805480156101f657602002820191906000526020600020905b8160009054906101000a900473ffffffffffffffffffffffffffffffffffffffff1673ffffffffffffffffffffffffffffffffffffffff16815260200190600101908083116101ac575b5050505050905090565b60006020528060005260406000206000915090508060000160009054906101000a900473ffffffffffffffffffffffffffffffffffffffff16905081565b600080fd5b600073ffffffffffffffffffffffffffffffffffffffff82169050919050565b600061026e82610243565b9050919050565b61027e81610263565b811461028957600080fd5b50565b60008135905061029b81610275565b92915050565b6000602082840312156102b7576102b661023e565b5b60006102c58482850161028c565b91505092915050565b600081519050919050565b600082825260208201905092915050565b6000819050602082019050919050565b61030381610263565b82525050565b600061031583836102fa565b60208301905092915050565b6000602082019050919050565b6000610339826102ce565b61034381856102d9565b935061034e836102ea565b8060005b8381101561037f5781516103668882610309565b975061037183610321565b925050600181019050610352565b5085935050505092915050565b600060208201905081810360008301526103a6818461032e565b905092915050565b6103b781610263565b82525050565b60006020820190506103d260008301846103ae565b9291505056fea264697066735822122048e4c02e5acadd141ea7ad1110fdc3d203d672f83167f765eaa9b7534a3388aa64736f6c63430008120033",
  "linkReferences": {},
  "deployedLinkReferences": {}
}