{
  "_format": "hh-sol-artifact-1",
  "contractName": "ehr",
  "sourceName": "contracts/ehr.sol",
  "abi": [
    {
      "inputs": [],
      "stateMutability": "nonpayable",
      "type": "constructor"
    },
    {
      "anonymous": false,
      "inputs": [
        {
          "indexed": true,
          "internalType": "address",
          "name": "doctor",
          "type": "address"
        },
        {
          "indexed": true,
          "internalType": "address",
          "name": "patient",
          "type": "address"
        }
      ],
      "name": "AccessGranted",
      "type": "event"
    },
    {
      "anonymous": false,
      "inputs": [
        {
          "indexed": true,
          "internalType": "address",
          "name": "doctor",
          "type": "address"
        },
        {
          "indexed": true,
          "internalType": "address",
          "name": "patient",
          "type": "address"
        }
      ],
      "name": "AccessRequested",
      "type": "event"
    },
    {
      "anonymous": false,
      "inputs": [
        {
          "indexed": true,
          "internalType": "address",
          "name": "doctor",
          "type": "address"
        },
        {
          "indexed": true,
          "internalType": "address",
          "name": "patient",
          "type": "address"
        }
      ],
      "name": "AccessRevoked",
      "type": "event"
    },
    {
      "anonymous": false,
      "inputs": [
        {
          "indexed": true,
          "internalType": "address",
          "name": "doctor",
          "type": "address"
        },
        {
          "indexed": true,
          "internalType": "address",
          "name": "hospital",
          "type": "address"
        }
      ],
      "name": "DoctorAddedToHospital",
      "type": "event"
    },
    {
      "anonymous": false,
      "inputs": [
        {
          "indexed": true,
          "internalType": "address",
          "name": "doctor",
          "type": "address"
        }
      ],
      "name": "DoctorRegistered",
      "type": "event"
    },
    {
      "anonymous": false,
      "inputs": [
        {
          "indexed": true,
          "internalType": "address",
          "name": "hospital_admin",
          "type": "address"
        }
      ],
      "name": "HospitalRegistered",
      "type": "event"
    },
    {
      "anonymous": false,
      "inputs": [
        {
          "indexed": true,
          "internalType": "address",
          "name": "doctor",
          "type": "address"
        },
        {
          "indexed": true,
          "internalType": "address",
          "name": "patient",
          "type": "address"
        },
        {
          "indexed": false,
          "internalType": "string",
          "name": "dataHash",
          "type": "string"
        }
      ],
      "name": "RecordSentToPatient",
      "type": "event"
    },
    {
      "anonymous": false,
      "inputs": [
        {
          "indexed": true,
          "internalType": "address",
          "name": "user",
          "type": "address"
        }
      ],
      "name": "UserRegistered",
      "type": "event"
    },
    {
      "inputs": [
        {
          "internalType": "address",
          "name": "_doctor_address",
          "type": "address"
        }
      ],
      "name": "addDoctorToHospital",
      "outputs": [
        {
          "internalType": "bool",
          "name": "",
          "type": "bool"
        }
      ],
      "stateMutability": "nonpayable",
      "type": "function"
    },
    {
      "inputs": [
        {
          "internalType": "address",
          "name": "_patient_address",
          "type": "address"
        },
        {
          "internalType": "address",
          "name": "_doctor_address",
          "type": "address"
        }
      ],
      "name": "getAccessStatus",
      "outputs": [
        {
          "internalType": "bool",
          "name": "",
          "type": "bool"
        }
      ],
      "stateMutability": "view",
      "type": "function"
    },
    {
      "inputs": [],
      "name": "getAllHospitals",
      "outputs": [
        {
          "components": [
            {
              "internalType": "string",
              "name": "name",
              "type": "string"
            },
            {
              "internalType": "string",
              "name": "description",
              "type": "string"
            },
            {
              "internalType": "address",
              "name": "admin",
              "type": "address"
            },
            {
              "internalType": "address[]",
              "name": "doctors",
              "type": "address[]"
            },
            {
              "internalType": "string",
              "name": "image",
              "type": "string"
            }
          ],
          "internalType": "struct ehr.Hospital[]",
          "name": "",
          "type": "tuple[]"
        }
      ],
      "stateMutability": "view",
      "type": "function"
    },
    {
      "inputs": [
        {
          "internalType": "address",
          "name": "_hospital_admin_address",
          "type": "address"
        }
      ],
      "name": "getDoctors",
      "outputs": [
        {
          "internalType": "address[]",
          "name": "",
          "type": "address[]"
        }
      ],
      "stateMutability": "view",
      "type": "function"
    },
    {
      "inputs": [],
      "name": "getMyRecords",
      "outputs": [
        {
          "components": [
            {
              "internalType": "string",
              "name": "dataHash",
              "type": "string"
            },
            {
              "internalType": "address",
              "name": "doctor",
              "type": "address"
            },
            {
              "internalType": "address",
              "name": "patient",
              "type": "address"
            },
            {
              "internalType": "uint256",
              "name": "timestamp",
              "type": "uint256"
            }
          ],
          "internalType": "struct ehr.Record[]",
          "name": "",
          "type": "tuple[]"
        }
      ],
      "stateMutability": "view",
      "type": "function"
    },
    {
      "inputs": [],
      "name": "getOwner",
      "outputs": [
        {
          "internalType": "address",
          "name": "",
          "type": "address"
        }
      ],
      "stateMutability": "view",
      "type": "function"
    },
    {
      "inputs": [
        {
          "internalType": "address",
          "name": "_patient_address",
          "type": "address"
        }
      ],
      "name": "getRecordHistoryOfPatient",
      "outputs": [
        {
          "components": [
            {
              "internalType": "string",
              "name": "dataHash",
              "type": "string"
            },
            {
              "internalType": "address",
              "name": "doctor",
              "type": "address"
            },
            {
              "internalType": "address",
              "name": "patient",
              "type": "address"
            },
            {
              "internalType": "uint256",
              "name": "timestamp",
              "type": "uint256"
            }
          ],
          "internalType": "struct ehr.Record[]",
          "name": "",
          "type": "tuple[]"
        }
      ],
      "stateMutability": "view",
      "type": "function"
    },
    {
      "inputs": [
        {
          "internalType": "address",
          "name": "_patient_address",
          "type": "address"
        },
        {
          "internalType": "address",
          "name": "_doctor_address",
          "type": "address"
        }
      ],
      "name": "getRequestStatus",
      "outputs": [
        {
          "internalType": "bool",
          "name": "",
          "type": "bool"
        }
      ],
      "stateMutability": "view",
      "type": "function"
    },
    {
      "inputs": [
        {
          "internalType": "address",
          "name": "_doctor_address",
          "type": "address"
        }
      ],
      "name": "grantAccessToRecordHistory",
      "outputs": [
        {
          "internalType": "bool",
          "name": "",
          "type": "bool"
        }
      ],
      "stateMutability": "nonpayable",
      "type": "function"
    },
    {
      "inputs": [
        {
          "internalType": "address",
          "name": "",
          "type": "address"
        }
      ],
      "name": "hospitals",
      "outputs": [
        {
          "internalType": "string",
          "name": "name",
          "type": "string"
        },
        {
          "internalType": "string",
          "name": "description",
          "type": "string"
        },
        {
          "internalType": "address",
          "name": "admin",
          "type": "address"
        },
        {
          "internalType": "string",
          "name": "image",
          "type": "string"
        }
      ],
      "stateMutability": "view",
      "type": "function"
    },
    {
      "inputs": [
        {
          "internalType": "uint256",
          "name": "",
          "type": "uint256"
        }
      ],
      "name": "hospitalsArray",
      "outputs": [
        {
          "internalType": "string",
          "name": "name",
          "type": "string"
        },
        {
          "internalType": "string",
          "name": "description",
          "type": "string"
        },
        {
          "internalType": "address",
          "name": "admin",
          "type": "address"
        },
        {
          "internalType": "string",
          "name": "image",
          "type": "string"
        }
      ],
      "stateMutability": "view",
      "type": "function"
    },
    {
      "inputs": [],
      "name": "owner",
      "outputs": [
        {
          "internalType": "address",
          "name": "",
          "type": "address"
        }
      ],
      "stateMutability": "view",
      "type": "function"
    },
    {
      "inputs": [
        {
          "internalType": "address",
          "name": "_doc_address",
          "type": "address"
        }
      ],
      "name": "registerDoctor",
      "outputs": [
        {
          "internalType": "bool",
          "name": "",
          "type": "bool"
        }
      ],
      "stateMutability": "nonpayable",
      "type": "function"
    },
    {
      "inputs": [
        {
          "internalType": "address",
          "name": "_hospital_admin_address",
          "type": "address"
        },
        {
          "internalType": "string",
          "name": "name",
          "type": "string"
        },
        {
          "internalType": "string",
          "name": "description",
          "type": "string"
        },
        {
          "internalType": "string",
          "name": "img",
          "type": "string"
        }
      ],
      "name": "registerHospital",
      "outputs": [
        {
          "internalType": "bool",
          "name": "",
          "type": "bool"
        }
      ],
      "stateMutability": "nonpayable",
      "type": "function"
    },
    {
      "inputs": [],
      "name": "registerUser",
      "outputs": [
        {
          "internalType": "bool",
          "name": "",
          "type": "bool"
        }
      ],
      "stateMutability": "nonpayable",
      "type": "function"
    },
    {
      "inputs": [
        {
          "internalType": "address",
          "name": "_patient_address",
          "type": "address"
        }
      ],
      "name": "requestAccessToRecordHistory",
      "outputs": [
        {
          "internalType": "bool",
          "name": "",
          "type": "bool"
        }
      ],
      "stateMutability": "nonpayable",
      "type": "function"
    },
    {
      "inputs": [
        {
          "internalType": "address",
          "name": "_doctor_address",
          "type": "address"
        }
      ],
      "name": "revokeAccessToRecordHistory",
      "outputs": [
        {
          "internalType": "bool",
          "name": "",
          "type": "bool"
        }
      ],
      "stateMutability": "nonpayable",
      "type": "function"
    },
    {
      "inputs": [
        {
          "internalType": "address",
          "name": "_patient_address",
          "type": "address"
        },
        {
          "internalType": "string",
          "name": "_dataHash",
          "type": "string"
        }
      ],
      "name": "sendRecordToPatient",
      "outputs": [
        {
          "internalType": "bool",
          "name": "",
          "type": "bool"
        }
      ],
      "stateMutability": "nonpayable",
      "type": "function"
    },
    {
      "inputs": [
        {
          "internalType": "address",
          "name": "",
          "type": "address"
        }
      ],
      "name": "users",
      "outputs": [
        {
          "internalType": "enum ehr.Status",
          "name": "status",
          "type": "uint8"
        }
      ],
      "stateMutability": "view",
      "type": "function"
    }
  ],
  "bytecode": "0x608060405234801561001057600080fd5b50336000806101000a81548173ffffffffffffffffffffffffffffffffffffffff021916908373ffffffffffffffffffffffffffffffffffffffff160217905550613f84806100606000396000f3fe608060405234801561001057600080fd5b50600436106101215760003560e01c806395153599116100ad578063c26c857011610071578063c26c857014610381578063d0ae4356146103b1578063e76637ce146103e1578063f093cf80146103ff578063f412d74a1461043257610121565b80639515359914610291578063a101adda146102c1578063a87430ba146102f1578063bb1d3dbc14610321578063c22d05a41461035157610121565b80634e9f7154116100f45780634e9f7154146101d45780636106b5c2146101f2578063699ca99814610225578063893d20e8146102555780638da5cb5b1461027357610121565b80630af44bb71461012657806320b6559f146101565780632da451a5146101865780634d3820eb146101b6575b600080fd5b610140600480360381019061013b9190613026565b610462565b60405161014d919061306e565b60405180910390f35b610170600480360381019061016b91906131cf565b6107c2565b60405161017d919061306e565b60405180910390f35b6101a0600480360381019061019b9190613026565b610c2f565b6040516101ad9190613348565b60405180910390f35b6101be610cff565b6040516101cb919061306e565b60405180910390f35b6101dc610df8565b6040516101e991906135a5565b60405180910390f35b61020c600480360381019061020791906135fd565b6110f1565b60405161021c9493929190613683565b60405180910390f35b61023f600480360381019061023a9190613026565b6112e9565b60405161024c919061306e565b60405180910390f35b61025d6114e9565b60405161026a91906136dd565b60405180910390f35b61027b611512565b60405161028891906136dd565b60405180910390f35b6102ab60048036038101906102a691906136f8565b611536565b6040516102b8919061306e565b60405180910390f35b6102db60048036038101906102d69190613738565b6117de565b6040516102e8919061306e565b60405180910390f35b61030b60048036038101906103069190613026565b611aff565b604051610318919061380b565b60405180910390f35b61033b60048036038101906103369190613026565b611b2a565b604051610348919061306e565b60405180910390f35b61036b60048036038101906103669190613026565b611e29565b604051610378919061395a565b60405180910390f35b61039b60048036038101906103969190613026565b61224f565b6040516103a8919061306e565b60405180910390f35b6103cb60048036038101906103c691906136f8565b6124b9565b6040516103d8919061306e565b60405180910390f35b6103e9612761565b6040516103f6919061395a565b60405180910390f35b61041960048036038101906104149190613026565b6129fd565b6040516104299493929190613683565b60405180910390f35b61044c60048036038101906104479190613026565b612be5565b604051610459919061306e565b60405180910390f35b60008073ffffffffffffffffffffffffffffffffffffffff16600160003373ffffffffffffffffffffffffffffffffffffffff1673ffffffffffffffffffffffffffffffffffffffff16815260200190815260200160002060020160009054906101000a900473ffffffffffffffffffffffffffffffffffffffff1673ffffffffffffffffffffffffffffffffffffffff1603610534576040517f08c379a000000000000000000000000000000000000000000000000000000000815260040161052b906139c8565b60405180910390fd5b3373ffffffffffffffffffffffffffffffffffffffff16600160003373ffffffffffffffffffffffffffffffffffffffff1673ffffffffffffffffffffffffffffffffffffffff16815260200190815260200160002060020160009054906101000a900473ffffffffffffffffffffffffffffffffffffffff1673ffffffffffffffffffffffffffffffffffffffff1614610604576040517f08c379a00000000000000000000000000000000000000000000000000000000081526004016105fb90613a34565b60405180910390fd5b816000600381111561061957610618613794565b5b600360008373ffffffffffffffffffffffffffffffffffffffff1673ffffffffffffffffffffffffffffffffffffffff16815260200190815260200160002060000160009054906101000a900460ff16600381111561067b5761067a613794565b5b036106bb576040517f08c379a00000000000000000000000000000000000000000000000000000000081526004016106b290613aa0565b60405180910390fd5b600160003373ffffffffffffffffffffffffffffffffffffffff1673ffffffffffffffffffffffffffffffffffffffff168152602001908152602001600020600301839080600181540180825580915050600190039060005260206000200160009091909190916101000a81548173ffffffffffffffffffffffffffffffffffffffff021916908373ffffffffffffffffffffffffffffffffffffffff1602179055503373ffffffffffffffffffffffffffffffffffffffff168373ffffffffffffffffffffffffffffffffffffffff167f4dc586f2829369cfd6df4011806f9992a021a428548aac3d92cf26cb995b364060405160405180910390a36001915050919050565b60008060009054906101000a900473ffffffffffffffffffffffffffffffffffffffff1673ffffffffffffffffffffffffffffffffffffffff163373ffffffffffffffffffffffffffffffffffffffff1614610853576040517f08c379a000000000000000000000000000000000000000000000000000000000815260040161084a90613b0c565b60405180910390fd5b846000600381111561086857610867613794565b5b600360008373ffffffffffffffffffffffffffffffffffffffff1673ffffffffffffffffffffffffffffffffffffffff16815260200190815260200160002060000160009054906101000a900460ff1660038111156108ca576108c9613794565b5b0361090a576040517f08c379a000000000000000000000000000000000000000000000000000000000815260040161090190613aa0565b60405180910390fd5b610912612e4f565b85816000018190525086816040019073ffffffffffffffffffffffffffffffffffffffff16908173ffffffffffffffffffffffffffffffffffffffff1681525050600067ffffffffffffffff81111561096e5761096d6130a4565b5b60405190808252806020026020018201604052801561099c5781602001602082028036833780820191505090505b50816060018190525084816020018190525083816080018190525060038060008973ffffffffffffffffffffffffffffffffffffffff1673ffffffffffffffffffffffffffffffffffffffff16815260200190815260200160002060000160006101000a81548160ff02191690836003811115610a1c57610a1b613794565b5b021790555080600160008973ffffffffffffffffffffffffffffffffffffffff1673ffffffffffffffffffffffffffffffffffffffff1681526020019081526020016000206000820151816000019081610a769190613d38565b506020820151816001019081610a8c9190613d38565b5060408201518160020160006101000a81548173ffffffffffffffffffffffffffffffffffffffff021916908373ffffffffffffffffffffffffffffffffffffffff1602179055506060820151816003019080519060200190610af0929190612e94565b506080820151816004019081610b069190613d38565b5090505060028190806001815401808255809150506001900390600052602060002090600502016000909190919091506000820151816000019081610b4b9190613d38565b506020820151816001019081610b619190613d38565b5060408201518160020160006101000a81548173ffffffffffffffffffffffffffffffffffffffff021916908373ffffffffffffffffffffffffffffffffffffffff1602179055506060820151816003019080519060200190610bc5929190612e94565b506080820151816004019081610bdb9190613d38565b5050508673ffffffffffffffffffffffffffffffffffffffff167f380355b6fe4f9755ddcef7c5c195edae45bdb34953a41d82386022f3cd5899f060405160405180910390a2600192505050949350505050565b6060600160008373ffffffffffffffffffffffffffffffffffffffff1673ffffffffffffffffffffffffffffffffffffffff168152602001908152602001600020600301805480602002602001604051908101604052809291908181526020018280548015610cf357602002820191906000526020600020905b8160009054906101000a900473ffffffffffffffffffffffffffffffffffffffff1673ffffffffffffffffffffffffffffffffffffffff1681526020019060010190808311610ca9575b50505050509050919050565b6000610d09612f1e565b600181600001906003811115610d2257610d21613794565b5b90816003811115610d3657610d35613794565b5b8152505080600360003373ffffffffffffffffffffffffffffffffffffffff1673ffffffffffffffffffffffffffffffffffffffff16815260200190815260200160002060008201518160000160006101000a81548160ff02191690836003811115610da557610da4613794565b5b02179055509050503373ffffffffffffffffffffffffffffffffffffffff167f54db7a5cb4735e1aac1f53db512d3390390bb6637bd30ad4bf9fc98667d9b9b960405160405180910390a2600191505090565b60606002805480602002602001604051908101604052809291908181526020016000905b828210156110e857838290600052602060002090600502016040518060a0016040529081600082018054610e4f90613b5b565b80601f0160208091040260200160405190810160405280929190818152602001828054610e7b90613b5b565b8015610ec85780601f10610e9d57610100808354040283529160200191610ec8565b820191906000526020600020905b815481529060010190602001808311610eab57829003601f168201915b50505050508152602001600182018054610ee190613b5b565b80601f0160208091040260200160405190810160405280929190818152602001828054610f0d90613b5b565b8015610f5a5780601f10610f2f57610100808354040283529160200191610f5a565b820191906000526020600020905b815481529060010190602001808311610f3d57829003601f168201915b505050505081526020016002820160009054906101000a900473ffffffffffffffffffffffffffffffffffffffff1673ffffffffffffffffffffffffffffffffffffffff1673ffffffffffffffffffffffffffffffffffffffff1681526020016003820180548060200260200160405190810160405280929190818152602001828054801561103e57602002820191906000526020600020905b8160009054906101000a900473ffffffffffffffffffffffffffffffffffffffff1673ffffffffffffffffffffffffffffffffffffffff1681526020019060010190808311610ff4575b5050505050815260200160048201805461105790613b5b565b80601f016020809104026020016040519081016040528092919081815260200182805461108390613b5b565b80156110d05780601f106110a5576101008083540402835291602001916110d0565b820191906000526020600020905b8154815290600101906020018083116110b357829003601f168201915b50505050508152505081526020019060010190610e1c565b50505050905090565b6002818154811061110157600080fd5b906000526020600020906005020160009150905080600001805461112490613b5b565b80601f016020809104026020016040519081016040528092919081815260200182805461115090613b5b565b801561119d5780601f106111725761010080835404028352916020019161119d565b820191906000526020600020905b81548152906001019060200180831161118057829003601f168201915b5050505050908060010180546111b290613b5b565b80601f01602080910402602001604051908101604052809291908181526020018280546111de90613b5b565b801561122b5780601f106112005761010080835404028352916020019161122b565b820191906000526020600020905b81548152906001019060200180831161120e57829003601f168201915b5050505050908060020160009054906101000a900473ffffffffffffffffffffffffffffffffffffffff169080600401805461126690613b5b565b80601f016020809104026020016040519081016040528092919081815260200182805461129290613b5b565b80156112df5780601f106112b4576101008083540402835291602001916112df565b820191906000526020600020905b8154815290600101906020018083116112c257829003601f168201915b5050505050905084565b60008060009054906101000a900473ffffffffffffffffffffffffffffffffffffffff1673ffffffffffffffffffffffffffffffffffffffff163373ffffffffffffffffffffffffffffffffffffffff161461137a576040517f08c379a000000000000000000000000000000000000000000000000000000000815260040161137190613b0c565b60405180910390fd5b816000600381111561138f5761138e613794565b5b600360008373ffffffffffffffffffffffffffffffffffffffff1673ffffffffffffffffffffffffffffffffffffffff16815260200190815260200160002060000160009054906101000a900460ff1660038111156113f1576113f0613794565b5b03611431576040517f08c379a000000000000000000000000000000000000000000000000000000000815260040161142890613aa0565b60405180910390fd5b6002600360008573ffffffffffffffffffffffffffffffffffffffff1673ffffffffffffffffffffffffffffffffffffffff16815260200190815260200160002060000160006101000a81548160ff0219169083600381111561149757611496613794565b5b02179055508273ffffffffffffffffffffffffffffffffffffffff167f2dc8105a7545248d0e354c4c6b02fb583071cc719fb4bef1ca74d72d475570bc60405160405180910390a26001915050919050565b60008060009054906101000a900473ffffffffffffffffffffffffffffffffffffffff16905090565b60008054906101000a900473ffffffffffffffffffffffffffffffffffffffff1681565b6000826000600381111561154d5761154c613794565b5b600360008373ffffffffffffffffffffffffffffffffffffffff1673ffffffffffffffffffffffffffffffffffffffff16815260200190815260200160002060000160009054906101000a900460ff1660038111156115af576115ae613794565b5b036115ef576040517f08c379a00000000000000000000000000000000000000000000000000000000081526004016115e690613aa0565b60405180910390fd5b826000600381111561160457611603613794565b5b600360008373ffffffffffffffffffffffffffffffffffffffff1673ffffffffffffffffffffffffffffffffffffffff16815260200190815260200160002060000160009054906101000a900460ff16600381111561166657611665613794565b5b036116a6576040517f08c379a000000000000000000000000000000000000000000000000000000000815260040161169d90613aa0565b60405180910390fd5b8473ffffffffffffffffffffffffffffffffffffffff163373ffffffffffffffffffffffffffffffffffffffff16148061170b57508373ffffffffffffffffffffffffffffffffffffffff163373ffffffffffffffffffffffffffffffffffffffff16145b61174a576040517f08c379a000000000000000000000000000000000000000000000000000000000815260040161174190613e56565b60405180910390fd5b600560008673ffffffffffffffffffffffffffffffffffffffff1673ffffffffffffffffffffffffffffffffffffffff16815260200190815260200160002060008573ffffffffffffffffffffffffffffffffffffffff1673ffffffffffffffffffffffffffffffffffffffff16815260200190815260200160002060009054906101000a900460ff169250505092915050565b600033600260038111156117f5576117f4613794565b5b600360008373ffffffffffffffffffffffffffffffffffffffff1673ffffffffffffffffffffffffffffffffffffffff16815260200190815260200160002060000160009054906101000a900460ff16600381111561185757611856613794565b5b14611897576040517f08c379a000000000000000000000000000000000000000000000000000000000815260040161188e90613ec2565b60405180910390fd5b83600060038111156118ac576118ab613794565b5b600360008373ffffffffffffffffffffffffffffffffffffffff1673ffffffffffffffffffffffffffffffffffffffff16815260200190815260200160002060000160009054906101000a900460ff16600381111561190e5761190d613794565b5b0361194e576040517f08c379a000000000000000000000000000000000000000000000000000000000815260040161194590613aa0565b60405180910390fd5b611956612f43565b84816000018190525033816020019073ffffffffffffffffffffffffffffffffffffffff16908173ffffffffffffffffffffffffffffffffffffffff168152505085816040019073ffffffffffffffffffffffffffffffffffffffff16908173ffffffffffffffffffffffffffffffffffffffff168152505042816060018181525050600460008773ffffffffffffffffffffffffffffffffffffffff1673ffffffffffffffffffffffffffffffffffffffff1681526020019081526020016000208190806001815401808255809150506001900390600052602060002090600402016000909190919091506000820151816000019081611a579190613d38565b5060208201518160010160006101000a81548173ffffffffffffffffffffffffffffffffffffffff021916908373ffffffffffffffffffffffffffffffffffffffff16021790555060408201518160020160006101000a81548173ffffffffffffffffffffffffffffffffffffffff021916908373ffffffffffffffffffffffffffffffffffffffff1602179055506060820151816003015550506001935050505092915050565b60036020528060005260406000206000915090508060000160009054906101000a900460ff16905081565b60003360006003811115611b4157611b40613794565b5b600360008373ffffffffffffffffffffffffffffffffffffffff1673ffffffffffffffffffffffffffffffffffffffff16815260200190815260200160002060000160009054906101000a900460ff166003811115611ba357611ba2613794565b5b03611be3576040517f08c379a0000000000000000000000000000000000000000000000000000000008152600401611bda90613aa0565b60405180910390fd5b8260006003811115611bf857611bf7613794565b5b600360008373ffffffffffffffffffffffffffffffffffffffff1673ffffffffffffffffffffffffffffffffffffffff16815260200190815260200160002060000160009054906101000a900460ff166003811115611c5a57611c59613794565b5b03611c9a576040517f08c379a0000000000000000000000000000000000000000000000000000000008152600401611c9190613aa0565b60405180910390fd5b6001600560003373ffffffffffffffffffffffffffffffffffffffff1673ffffffffffffffffffffffffffffffffffffffff16815260200190815260200160002060008673ffffffffffffffffffffffffffffffffffffffff1673ffffffffffffffffffffffffffffffffffffffff16815260200190815260200160002060006101000a81548160ff0219169083151502179055506000600660003373ffffffffffffffffffffffffffffffffffffffff1673ffffffffffffffffffffffffffffffffffffffff16815260200190815260200160002060008673ffffffffffffffffffffffffffffffffffffffff1673ffffffffffffffffffffffffffffffffffffffff16815260200190815260200160002060006101000a81548160ff0219169083151502179055503373ffffffffffffffffffffffffffffffffffffffff168473ffffffffffffffffffffffffffffffffffffffff167f9f520b3bfc56d06f7065d10b4683b3f57ac8895d5026cd176dee95ce1454cb8d60405160405180910390a3600192505050919050565b60603360026003811115611e4057611e3f613794565b5b600360008373ffffffffffffffffffffffffffffffffffffffff1673ffffffffffffffffffffffffffffffffffffffff16815260200190815260200160002060000160009054906101000a900460ff166003811115611ea257611ea1613794565b5b14611ee2576040517f08c379a0000000000000000000000000000000000000000000000000000000008152600401611ed990613ec2565b60405180910390fd5b8260006003811115611ef757611ef6613794565b5b600360008373ffffffffffffffffffffffffffffffffffffffff1673ffffffffffffffffffffffffffffffffffffffff16815260200190815260200160002060000160009054906101000a900460ff166003811115611f5957611f58613794565b5b03611f99576040517f08c379a0000000000000000000000000000000000000000000000000000000008152600401611f9090613aa0565b60405180910390fd5b60011515600560008673ffffffffffffffffffffffffffffffffffffffff1673ffffffffffffffffffffffffffffffffffffffff16815260200190815260200160002060003373ffffffffffffffffffffffffffffffffffffffff1673ffffffffffffffffffffffffffffffffffffffff16815260200190815260200160002060009054906101000a900460ff16151514612069576040517f08c379a000000000000000000000000000000000000000000000000000000000815260040161206090613f2e565b60405180910390fd5b600460008573ffffffffffffffffffffffffffffffffffffffff1673ffffffffffffffffffffffffffffffffffffffff168152602001908152602001600020805480602002602001604051908101604052809291908181526020016000905b8282101561224257838290600052602060002090600402016040518060800160405290816000820180546120fb90613b5b565b80601f016020809104026020016040519081016040528092919081815260200182805461212790613b5b565b80156121745780601f1061214957610100808354040283529160200191612174565b820191906000526020600020905b81548152906001019060200180831161215757829003601f168201915b505050505081526020016001820160009054906101000a900473ffffffffffffffffffffffffffffffffffffffff1673ffffffffffffffffffffffffffffffffffffffff1673ffffffffffffffffffffffffffffffffffffffff1681526020016002820160009054906101000a900473ffffffffffffffffffffffffffffffffffffffff1673ffffffffffffffffffffffffffffffffffffffff1673ffffffffffffffffffffffffffffffffffffffff168152602001600382015481525050815260200190600101906120c8565b5050505092505050919050565b6000336000600381111561226657612265613794565b5b600360008373ffffffffffffffffffffffffffffffffffffffff1673ffffffffffffffffffffffffffffffffffffffff16815260200190815260200160002060000160009054906101000a900460ff1660038111156122c8576122c7613794565b5b03612308576040517f08c379a00000000000000000000000000000000000000000000000000000000081526004016122ff90613aa0565b60405180910390fd5b826000600381111561231d5761231c613794565b5b600360008373ffffffffffffffffffffffffffffffffffffffff1673ffffffffffffffffffffffffffffffffffffffff16815260200190815260200160002060000160009054906101000a900460ff16600381111561237f5761237e613794565b5b036123bf576040517f08c379a00000000000000000000000000000000000000000000000000000000081526004016123b690613aa0565b60405180910390fd5b6000600560003373ffffffffffffffffffffffffffffffffffffffff1673ffffffffffffffffffffffffffffffffffffffff16815260200190815260200160002060008673ffffffffffffffffffffffffffffffffffffffff1673ffffffffffffffffffffffffffffffffffffffff16815260200190815260200160002060006101000a81548160ff0219169083151502179055503373ffffffffffffffffffffffffffffffffffffffff168473ffffffffffffffffffffffffffffffffffffffff167f825c8be24eb0df19500f63e86c29e7d0d951e73056b889b891d85e40938d9b6e60405160405180910390a3600192505050919050565b600082600060038111156124d0576124cf613794565b5b600360008373ffffffffffffffffffffffffffffffffffffffff1673ffffffffffffffffffffffffffffffffffffffff16815260200190815260200160002060000160009054906101000a900460ff16600381111561253257612531613794565b5b03612572576040517f08c379a000000000000000000000000000000000000000000000000000000000815260040161256990613aa0565b60405180910390fd5b826000600381111561258757612586613794565b5b600360008373ffffffffffffffffffffffffffffffffffffffff1673ffffffffffffffffffffffffffffffffffffffff16815260200190815260200160002060000160009054906101000a900460ff1660038111156125e9576125e8613794565b5b03612629576040517f08c379a000000000000000000000000000000000000000000000000000000000815260040161262090613aa0565b60405180910390fd5b8473ffffffffffffffffffffffffffffffffffffffff163373ffffffffffffffffffffffffffffffffffffffff16148061268e57508373ffffffffffffffffffffffffffffffffffffffff163373ffffffffffffffffffffffffffffffffffffffff16145b6126cd576040517f08c379a00000000000000000000000000000000000000000000000000000000081526004016126c490613e56565b60405180910390fd5b600660008673ffffffffffffffffffffffffffffffffffffffff1673ffffffffffffffffffffffffffffffffffffffff16815260200190815260200160002060008573ffffffffffffffffffffffffffffffffffffffff1673ffffffffffffffffffffffffffffffffffffffff16815260200190815260200160002060009054906101000a900460ff169250505092915050565b6060336000600381111561277857612777613794565b5b600360008373ffffffffffffffffffffffffffffffffffffffff1673ffffffffffffffffffffffffffffffffffffffff16815260200190815260200160002060000160009054906101000a900460ff1660038111156127da576127d9613794565b5b0361281a576040517f08c379a000000000000000000000000000000000000000000000000000000000815260040161281190613aa0565b60405180910390fd5b600460003373ffffffffffffffffffffffffffffffffffffffff1673ffffffffffffffffffffffffffffffffffffffff168152602001908152602001600020805480602002602001604051908101604052809291908181526020016000905b828210156129f357838290600052602060002090600402016040518060800160405290816000820180546128ac90613b5b565b80601f01602080910402602001604051908101604052809291908181526020018280546128d890613b5b565b80156129255780601f106128fa57610100808354040283529160200191612925565b820191906000526020600020905b81548152906001019060200180831161290857829003601f168201915b505050505081526020016001820160009054906101000a900473ffffffffffffffffffffffffffffffffffffffff1673ffffffffffffffffffffffffffffffffffffffff1673ffffffffffffffffffffffffffffffffffffffff1681526020016002820160009054906101000a900473ffffffffffffffffffffffffffffffffffffffff1673ffffffffffffffffffffffffffffffffffffffff1673ffffffffffffffffffffffffffffffffffffffff16815260200160038201548152505081526020019060010190612879565b5050505091505090565b6001602052806000526040600020600091509050806000018054612a2090613b5b565b80601f0160208091040260200160405190810160405280929190818152602001828054612a4c90613b5b565b8015612a995780601f10612a6e57610100808354040283529160200191612a99565b820191906000526020600020905b815481529060010190602001808311612a7c57829003601f168201915b505050505090806001018054612aae90613b5b565b80601f0160208091040260200160405190810160405280929190818152602001828054612ada90613b5b565b8015612b275780601f10612afc57610100808354040283529160200191612b27565b820191906000526020600020905b815481529060010190602001808311612b0a57829003601f168201915b5050505050908060020160009054906101000a900473ffffffffffffffffffffffffffffffffffffffff1690806004018054612b6290613b5b565b80601f0160208091040260200160405190810160405280929190818152602001828054612b8e90613b5b565b8015612bdb5780601f10612bb057610100808354040283529160200191612bdb565b820191906000526020600020905b815481529060010190602001808311612bbe57829003601f168201915b5050505050905084565b60003360026003811115612bfc57612bfb613794565b5b600360008373ffffffffffffffffffffffffffffffffffffffff1673ffffffffffffffffffffffffffffffffffffffff16815260200190815260200160002060000160009054906101000a900460ff166003811115612c5e57612c5d613794565b5b14612c9e576040517f08c379a0000000000000000000000000000000000000000000000000000000008152600401612c9590613ec2565b60405180910390fd5b8260006003811115612cb357612cb2613794565b5b600360008373ffffffffffffffffffffffffffffffffffffffff1673ffffffffffffffffffffffffffffffffffffffff16815260200190815260200160002060000160009054906101000a900460ff166003811115612d1557612d14613794565b5b03612d55576040517f08c379a0000000000000000000000000000000000000000000000000000000008152600401612d4c90613aa0565b60405180910390fd5b6001600660008673ffffffffffffffffffffffffffffffffffffffff1673ffffffffffffffffffffffffffffffffffffffff16815260200190815260200160002060003373ffffffffffffffffffffffffffffffffffffffff1673ffffffffffffffffffffffffffffffffffffffff16815260200190815260200160002060006101000a81548160ff0219169083151502179055508373ffffffffffffffffffffffffffffffffffffffff163373ffffffffffffffffffffffffffffffffffffffff167f40c7749b16fdfb0d550f20273a7767875059d647af94f5a9610c63ad73dcc79f60405160405180910390a3600192505050919050565b6040518060a001604052806060815260200160608152602001600073ffffffffffffffffffffffffffffffffffffffff16815260200160608152602001606081525090565b828054828255906000526020600020908101928215612f0d579160200282015b82811115612f0c5782518260006101000a81548173ffffffffffffffffffffffffffffffffffffffff021916908373ffffffffffffffffffffffffffffffffffffffff16021790555091602001919060010190612eb4565b5b509050612f1a9190612f97565b5090565b604051806020016040528060006003811115612f3d57612f3c613794565b5b81525090565b604051806080016040528060608152602001600073ffffffffffffffffffffffffffffffffffffffff168152602001600073ffffffffffffffffffffffffffffffffffffffff168152602001600081525090565b5b80821115612fb0576000816000905550600101612f98565b5090565b6000604051905090565b600080fd5b600080fd5b600073ffffffffffffffffffffffffffffffffffffffff82169050919050565b6000612ff382612fc8565b9050919050565b61300381612fe8565b811461300e57600080fd5b50565b60008135905061302081612ffa565b92915050565b60006020828403121561303c5761303b612fbe565b5b600061304a84828501613011565b91505092915050565b60008115159050919050565b61306881613053565b82525050565b6000602082019050613083600083018461305f565b92915050565b600080fd5b600080fd5b6000601f19601f8301169050919050565b7f4e487b7100000000000000000000000000000000000000000000000000000000600052604160045260246000fd5b6130dc82613093565b810181811067ffffffffffffffff821117156130fb576130fa6130a4565b5b80604052505050565b600061310e612fb4565b905061311a82826130d3565b919050565b600067ffffffffffffffff82111561313a576131396130a4565b5b61314382613093565b9050602081019050919050565b82818337600083830152505050565b600061317261316d8461311f565b613104565b90508281526020810184848401111561318e5761318d61308e565b5b613199848285613150565b509392505050565b600082601f8301126131b6576131b5613089565b5b81356131c684826020860161315f565b91505092915050565b600080600080608085870312156131e9576131e8612fbe565b5b60006131f787828801613011565b945050602085013567ffffffffffffffff81111561321857613217612fc3565b5b613224878288016131a1565b935050604085013567ffffffffffffffff81111561324557613244612fc3565b5b613251878288016131a1565b925050606085013567ffffffffffffffff81111561327257613271612fc3565b5b61327e878288016131a1565b91505092959194509250565b600081519050919050565b600082825260208201905092915050565b6000819050602082019050919050565b6132bf81612fe8565b82525050565b60006132d183836132b6565b60208301905092915050565b6000602082019050919050565b60006132f58261328a565b6132ff8185613295565b935061330a836132a6565b8060005b8381101561333b57815161332288826132c5565b975061332d836132dd565b92505060018101905061330e565b5085935050505092915050565b6000602082019050818103600083015261336281846132ea565b905092915050565b600081519050919050565b600082825260208201905092915050565b6000819050602082019050919050565b600081519050919050565b600082825260208201905092915050565b60005b838110156133d05780820151818401526020810190506133b5565b60008484015250505050565b60006133e782613396565b6133f181856133a1565b93506134018185602086016133b2565b61340a81613093565b840191505092915050565b600082825260208201905092915050565b60006134318261328a565b61343b8185613415565b9350613446836132a6565b8060005b8381101561347757815161345e88826132c5565b9750613469836132dd565b92505060018101905061344a565b5085935050505092915050565b600060a08301600083015184820360008601526134a182826133dc565b915050602083015184820360208601526134bb82826133dc565b91505060408301516134d060408601826132b6565b50606083015184820360608601526134e88282613426565b9150506080830151848203608086015261350282826133dc565b9150508091505092915050565b600061351b8383613484565b905092915050565b6000602082019050919050565b600061353b8261336a565b6135458185613375565b93508360208202850161355785613386565b8060005b858110156135935784840389528151613574858261350f565b945061357f83613523565b925060208a0199505060018101905061355b565b50829750879550505050505092915050565b600060208201905081810360008301526135bf8184613530565b905092915050565b6000819050919050565b6135da816135c7565b81146135e557600080fd5b50565b6000813590506135f7816135d1565b92915050565b60006020828403121561361357613612612fbe565b5b6000613621848285016135e8565b91505092915050565b600082825260208201905092915050565b600061364682613396565b613650818561362a565b93506136608185602086016133b2565b61366981613093565b840191505092915050565b61367d81612fe8565b82525050565b6000608082019050818103600083015261369d818761363b565b905081810360208301526136b1818661363b565b90506136c06040830185613674565b81810360608301526136d2818461363b565b905095945050505050565b60006020820190506136f26000830184613674565b92915050565b6000806040838503121561370f5761370e612fbe565b5b600061371d85828601613011565b925050602061372e85828601613011565b9150509250929050565b6000806040838503121561374f5761374e612fbe565b5b600061375d85828601613011565b925050602083013567ffffffffffffffff81111561377e5761377d612fc3565b5b61378a858286016131a1565b9150509250929050565b7f4e487b7100000000000000000000000000000000000000000000000000000000600052602160045260246000fd5b600481106137d4576137d3613794565b5b50565b60008190506137e5826137c3565b919050565b60006137f5826137d7565b9050919050565b613805816137ea565b82525050565b600060208201905061382060008301846137fc565b92915050565b600081519050919050565b600082825260208201905092915050565b6000819050602082019050919050565b61385b816135c7565b82525050565b6000608083016000830151848203600086015261387e82826133dc565b915050602083015161389360208601826132b6565b5060408301516138a660408601826132b6565b5060608301516138b96060860182613852565b508091505092915050565b60006138d08383613861565b905092915050565b6000602082019050919050565b60006138f082613826565b6138fa8185613831565b93508360208202850161390c85613842565b8060005b85811015613948578484038952815161392985826138c4565b9450613934836138d8565b925060208a01995050600181019050613910565b50829750879550505050505092915050565b6000602082019050818103600083015261397481846138e5565b905092915050565b7f4e4f545f415f484f53504954414c000000000000000000000000000000000000600082015250565b60006139b2600e8361362a565b91506139bd8261397c565b602082019050919050565b600060208201905081810360008301526139e1816139a5565b9050919050565b7f4e4f545f41444d494e0000000000000000000000000000000000000000000000600082015250565b6000613a1e60098361362a565b9150613a29826139e8565b602082019050919050565b60006020820190508181036000830152613a4d81613a11565b9050919050565b7f4e4f545f52454749535445524544000000000000000000000000000000000000600082015250565b6000613a8a600e8361362a565b9150613a9582613a54565b602082019050919050565b60006020820190508181036000830152613ab981613a7d565b9050919050565b7f4e4f545f4f574e45520000000000000000000000000000000000000000000000600082015250565b6000613af660098361362a565b9150613b0182613ac0565b602082019050919050565b60006020820190508181036000830152613b2581613ae9565b9050919050565b7f4e487b7100000000000000000000000000000000000000000000000000000000600052602260045260246000fd5b60006002820490506001821680613b7357607f821691505b602082108103613b8657613b85613b2c565b5b50919050565b60008190508160005260206000209050919050565b60006020601f8301049050919050565b600082821b905092915050565b600060088302613bee7fffffffffffffffffffffffffffffffffffffffffffffffffffffffffffffffff82613bb1565b613bf88683613bb1565b95508019841693508086168417925050509392505050565b6000819050919050565b6000613c35613c30613c2b846135c7565b613c10565b6135c7565b9050919050565b6000819050919050565b613c4f83613c1a565b613c63613c5b82613c3c565b848454613bbe565b825550505050565b600090565b613c78613c6b565b613c83818484613c46565b505050565b5b81811015613ca757613c9c600082613c70565b600181019050613c89565b5050565b601f821115613cec57613cbd81613b8c565b613cc684613ba1565b81016020851015613cd5578190505b613ce9613ce185613ba1565b830182613c88565b50505b505050565b600082821c905092915050565b6000613d0f60001984600802613cf1565b1980831691505092915050565b6000613d288383613cfe565b9150826002028217905092915050565b613d4182613396565b67ffffffffffffffff811115613d5a57613d596130a4565b5b613d648254613b5b565b613d6f828285613cab565b600060209050601f831160018114613da25760008415613d90578287015190505b613d9a8582613d1c565b865550613e02565b601f198416613db086613b8c565b60005b82811015613dd857848901518255600182019150602085019450602081019050613db3565b86831015613df55784890151613df1601f891682613cfe565b8355505b6001600288020188555050505b505050505050565b7f43616e6e6f74206163636573732074686973207265636f726400000000000000600082015250565b6000613e4060198361362a565b9150613e4b82613e0a565b602082019050919050565b60006020820190508181036000830152613e6f81613e33565b9050919050565b7f4e4f545f444f43544f5200000000000000000000000000000000000000000000600082015250565b6000613eac600a8361362a565b9150613eb782613e76565b602082019050919050565b60006020820190508181036000830152613edb81613e9f565b9050919050565b7f416363657373206e6f74206772616e7465640000000000000000000000000000600082015250565b6000613f1860128361362a565b9150613f2382613ee2565b602082019050919050565b60006020820190508181036000830152613f4781613f0b565b905091905056fea26469706673582212204cdc3928f5dba6133bb4ca8f8b9aa8359903474ebb35baa67d6eb632b3109a5f64736f6c63430008120033",
  "linkReferences": {},
  "deployedLinkReferences": {}
}