{
  "_format": "hh-sol-artifact-1",
  "contractName": "ehr",
  "sourceName": "contracts/ehr.sol",
  "abi": [
    {
      "inputs": [],
      "stateMutability": "nonpayable",
      "type": "constructor"
    },
    {
      "anonymous": false,
      "inputs": [
        {
          "indexed": true,
          "internalType": "address",
          "name": "doctor",
          "type": "address"
        },
        {
          "indexed": true,
          "internalType": "address",
          "name": "patient",
          "type": "address"
        }
      ],
      "name": "AccessGranted",
      "type": "event"
    },
    {
      "anonymous": false,
      "inputs": [
        {
          "indexed": true,
          "internalType": "address",
          "name": "doctor",
          "type": "address"
        },
        {
          "indexed": true,
          "internalType": "address",
          "name": "patient",
          "type": "address"
        }
      ],
      "name": "AccessRequested",
      "type": "event"
    },
    {
      "anonymous": false,
      "inputs": [
        {
          "indexed": true,
          "internalType": "address",
          "name": "doctor",
          "type": "address"
        },
        {
          "indexed": true,
          "internalType": "address",
          "name": "patient",
          "type": "address"
        }
      ],
      "name": "AccessRevoked",
      "type": "event"
    },
    {
      "anonymous": false,
      "inputs": [
        {
          "indexed": true,
          "internalType": "address",
          "name": "doctor",
          "type": "address"
        },
        {
          "indexed": true,
          "internalType": "address",
          "name": "hospital",
          "type": "address"
        }
      ],
      "name": "DoctorAddedToHospital",
      "type": "event"
    },
    {
      "anonymous": false,
      "inputs": [
        {
          "indexed": true,
          "internalType": "address",
          "name": "doctor",
          "type": "address"
        }
      ],
      "name": "DoctorRegistered",
      "type": "event"
    },
    {
      "anonymous": false,
      "inputs": [
        {
          "indexed": true,
          "internalType": "address",
          "name": "hospital_admin",
          "type": "address"
        }
      ],
      "name": "HospitalRegistered",
      "type": "event"
    },
    {
      "anonymous": false,
      "inputs": [
        {
          "indexed": true,
          "internalType": "address",
          "name": "doctor",
          "type": "address"
        },
        {
          "indexed": true,
          "internalType": "address",
          "name": "patient",
          "type": "address"
        },
        {
          "indexed": false,
          "internalType": "string",
          "name": "dataHash",
          "type": "string"
        }
      ],
      "name": "RecordSentToPatient",
      "type": "event"
    },
    {
      "anonymous": false,
      "inputs": [
        {
          "indexed": true,
          "internalType": "address",
          "name": "user",
          "type": "address"
        }
      ],
      "name": "UserRegistered",
      "type": "event"
    },
    {
      "inputs": [
        {
          "internalType": "address",
          "name": "_doctor_address",
          "type": "address"
        }
      ],
      "name": "addDoctorToHospital",
      "outputs": [
        {
          "internalType": "bool",
          "name": "",
          "type": "bool"
        }
      ],
      "stateMutability": "nonpayable",
      "type": "function"
    },
    {
      "inputs": [
        {
          "internalType": "address",
          "name": "_patient_address",
          "type": "address"
        },
        {
          "internalType": "address",
          "name": "_doctor_address",
          "type": "address"
        }
      ],
      "name": "getAccessStatus",
      "outputs": [
        {
          "internalType": "bool",
          "name": "",
          "type": "bool"
        }
      ],
      "stateMutability": "view",
      "type": "function"
    },
    {
      "inputs": [
        {
          "internalType": "address",
          "name": "_hospital_admin_address",
          "type": "address"
        }
      ],
      "name": "getDoctors",
      "outputs": [
        {
          "internalType": "address[]",
          "name": "",
          "type": "address[]"
        }
      ],
      "stateMutability": "view",
      "type": "function"
    },
    {
      "inputs": [],
      "name": "getMyRecords",
      "outputs": [
        {
          "components": [
            {
              "internalType": "string",
              "name": "dataHash",
              "type": "string"
            },
            {
              "internalType": "address",
              "name": "doctor",
              "type": "address"
            },
            {
              "internalType": "address",
              "name": "patient",
              "type": "address"
            },
            {
              "internalType": "uint256",
              "name": "timestamp",
              "type": "uint256"
            }
          ],
          "internalType": "struct ehr.Record[]",
          "name": "",
          "type": "tuple[]"
        }
      ],
      "stateMutability": "view",
      "type": "function"
    },
    {
      "inputs": [],
      "name": "getOwner",
      "outputs": [
        {
          "internalType": "address",
          "name": "",
          "type": "address"
        }
      ],
      "stateMutability": "view",
      "type": "function"
    },
    {
      "inputs": [
        {
          "internalType": "address",
          "name": "_patient_address",
          "type": "address"
        }
      ],
      "name": "getRecordHistoryOfPatient",
      "outputs": [
        {
          "components": [
            {
              "internalType": "string",
              "name": "dataHash",
              "type": "string"
            },
            {
              "internalType": "address",
              "name": "doctor",
              "type": "address"
            },
            {
              "internalType": "address",
              "name": "patient",
              "type": "address"
            },
            {
              "internalType": "uint256",
              "name": "timestamp",
              "type": "uint256"
            }
          ],
          "internalType": "struct ehr.Record[]",
          "name": "",
          "type": "tuple[]"
        }
      ],
      "stateMutability": "view",
      "type": "function"
    },
    {
      "inputs": [
        {
          "internalType": "address",
          "name": "_patient_address",
          "type": "address"
        },
        {
          "internalType": "address",
          "name": "_doctor_address",
          "type": "address"
        }
      ],
      "name": "getRequestStatus",
      "outputs": [
        {
          "internalType": "bool",
          "name": "",
          "type": "bool"
        }
      ],
      "stateMutability": "view",
      "type": "function"
    },
    {
      "inputs": [
        {
          "internalType": "address",
          "name": "_doctor_address",
          "type": "address"
        }
      ],
      "name": "grantAccessToRecordHistory",
      "outputs": [
        {
          "internalType": "bool",
          "name": "",
          "type": "bool"
        }
      ],
      "stateMutability": "nonpayable",
      "type": "function"
    },
    {
      "inputs": [
        {
          "internalType": "address",
          "name": "",
          "type": "address"
        }
      ],
      "name": "hospitals",
      "outputs": [
        {
          "internalType": "address",
          "name": "admin",
          "type": "address"
        }
      ],
      "stateMutability": "view",
      "type": "function"
    },
    {
      "inputs": [],
      "name": "owner",
      "outputs": [
        {
          "internalType": "address",
          "name": "",
          "type": "address"
        }
      ],
      "stateMutability": "view",
      "type": "function"
    },
    {
      "inputs": [
        {
          "internalType": "address",
          "name": "_doc_address",
          "type": "address"
        }
      ],
      "name": "registerDoctor",
      "outputs": [
        {
          "internalType": "bool",
          "name": "",
          "type": "bool"
        }
      ],
      "stateMutability": "nonpayable",
      "type": "function"
    },
    {
      "inputs": [
        {
          "internalType": "address",
          "name": "_hospital_admin_address",
          "type": "address"
        }
      ],
      "name": "registerHospital",
      "outputs": [
        {
          "internalType": "bool",
          "name": "",
          "type": "bool"
        }
      ],
      "stateMutability": "nonpayable",
      "type": "function"
    },
    {
      "inputs": [],
      "name": "registerUser",
      "outputs": [
        {
          "internalType": "bool",
          "name": "",
          "type": "bool"
        }
      ],
      "stateMutability": "nonpayable",
      "type": "function"
    },
    {
      "inputs": [
        {
          "internalType": "address",
          "name": "_patient_address",
          "type": "address"
        }
      ],
      "name": "requestAccessToRecordHistory",
      "outputs": [
        {
          "internalType": "bool",
          "name": "",
          "type": "bool"
        }
      ],
      "stateMutability": "nonpayable",
      "type": "function"
    },
    {
      "inputs": [
        {
          "internalType": "address",
          "name": "_doctor_address",
          "type": "address"
        }
      ],
      "name": "revokeAccessToRecordHistory",
      "outputs": [
        {
          "internalType": "bool",
          "name": "",
          "type": "bool"
        }
      ],
      "stateMutability": "nonpayable",
      "type": "function"
    },
    {
      "inputs": [
        {
          "internalType": "address",
          "name": "_patient_address",
          "type": "address"
        },
        {
          "internalType": "string",
          "name": "_dataHash",
          "type": "string"
        }
      ],
      "name": "sendRecordToPatient",
      "outputs": [
        {
          "internalType": "bool",
          "name": "",
          "type": "bool"
        }
      ],
      "stateMutability": "nonpayable",
      "type": "function"
    },
    {
      "inputs": [
        {
          "internalType": "address",
          "name": "",
          "type": "address"
        }
      ],
      "name": "users",
      "outputs": [
        {
          "internalType": "enum ehr.Status",
          "name": "status",
          "type": "uint8"
        }
      ],
      "stateMutability": "view",
      "type": "function"
    }
  ],
  "bytecode": "0x608060405234801561001057600080fd5b50336000806101000a81548173ffffffffffffffffffffffffffffffffffffffff021916908373ffffffffffffffffffffffffffffffffffffffff1602179055506133b1806100606000396000f3fe608060405234801561001057600080fd5b506004361061010b5760003560e01c8063a87430ba116100a2578063c5b9985811610071578063c5b998581461031a578063d0ae43561461034a578063e76637ce1461037a578063f093cf8014610398578063f412d74a146103c85761010b565b8063a87430ba1461025a578063bb1d3dbc1461028a578063c22d05a4146102ba578063c26c8570146102ea5761010b565b8063893d20e8116100de578063893d20e8146101be5780638da5cb5b146101dc57806395153599146101fa578063a101adda1461022a5761010b565b80630af44bb7146101105780632da451a5146101405780634d3820eb14610170578063699ca9981461018e575b600080fd5b61012a600480360381019061012591906127d8565b6103f8565b6040516101379190612820565b60405180910390f35b61015a600480360381019061015591906127d8565b610758565b60405161016791906128f9565b60405180910390f35b610178610828565b6040516101859190612820565b60405180910390f35b6101a860048036038101906101a391906127d8565b610921565b6040516101b59190612820565b60405180910390f35b6101c6610b20565b6040516101d3919061292a565b60405180910390f35b6101e4610b49565b6040516101f1919061292a565b60405180910390f35b610214600480360381019061020f9190612945565b610b6d565b6040516102219190612820565b60405180910390f35b610244600480360381019061023f9190612acb565b610e15565b6040516102519190612820565b60405180910390f35b610274600480360381019061026f91906127d8565b611136565b6040516102819190612b9e565b60405180910390f35b6102a4600480360381019061029f91906127d8565b611161565b6040516102b19190612820565b60405180910390f35b6102d460048036038101906102cf91906127d8565b611460565b6040516102e19190612d76565b60405180910390f35b61030460048036038101906102ff91906127d8565b611886565b6040516103119190612820565b60405180910390f35b610334600480360381019061032f91906127d8565b611af0565b6040516103419190612820565b60405180910390f35b610364600480360381019061035f9190612945565b611e2a565b6040516103719190612820565b60405180910390f35b6103826120d2565b60405161038f9190612d76565b60405180910390f35b6103b260048036038101906103ad91906127d8565b61236e565b6040516103bf919061292a565b60405180910390f35b6103e260048036038101906103dd91906127d8565b6123ac565b6040516103ef9190612820565b60405180910390f35b60008073ffffffffffffffffffffffffffffffffffffffff16600160003373ffffffffffffffffffffffffffffffffffffffff1673ffffffffffffffffffffffffffffffffffffffff16815260200190815260200160002060000160009054906101000a900473ffffffffffffffffffffffffffffffffffffffff1673ffffffffffffffffffffffffffffffffffffffff16036104ca576040517f08c379a00000000000000000000000000000000000000000000000000000000081526004016104c190612df5565b60405180910390fd5b3373ffffffffffffffffffffffffffffffffffffffff16600160003373ffffffffffffffffffffffffffffffffffffffff1673ffffffffffffffffffffffffffffffffffffffff16815260200190815260200160002060000160009054906101000a900473ffffffffffffffffffffffffffffffffffffffff1673ffffffffffffffffffffffffffffffffffffffff161461059a576040517f08c379a000000000000000000000000000000000000000000000000000000000815260040161059190612e61565b60405180910390fd5b81600060038111156105af576105ae612b27565b5b600260008373ffffffffffffffffffffffffffffffffffffffff1673ffffffffffffffffffffffffffffffffffffffff16815260200190815260200160002060000160009054906101000a900460ff16600381111561061157610610612b27565b5b03610651576040517f08c379a000000000000000000000000000000000000000000000000000000000815260040161064890612ecd565b60405180910390fd5b600160003373ffffffffffffffffffffffffffffffffffffffff1673ffffffffffffffffffffffffffffffffffffffff168152602001908152602001600020600101839080600181540180825580915050600190039060005260206000200160009091909190916101000a81548173ffffffffffffffffffffffffffffffffffffffff021916908373ffffffffffffffffffffffffffffffffffffffff1602179055503373ffffffffffffffffffffffffffffffffffffffff168373ffffffffffffffffffffffffffffffffffffffff167f4dc586f2829369cfd6df4011806f9992a021a428548aac3d92cf26cb995b364060405160405180910390a36001915050919050565b6060600160008373ffffffffffffffffffffffffffffffffffffffff1673ffffffffffffffffffffffffffffffffffffffff16815260200190815260200160002060010180548060200260200160405190810160405280929190818152602001828054801561081c57602002820191906000526020600020905b8160009054906101000a900473ffffffffffffffffffffffffffffffffffffffff1673ffffffffffffffffffffffffffffffffffffffff16815260200190600101908083116107d2575b50505050509050919050565b6000610832612616565b60018160000190600381111561084b5761084a612b27565b5b9081600381111561085f5761085e612b27565b5b8152505080600260003373ffffffffffffffffffffffffffffffffffffffff1673ffffffffffffffffffffffffffffffffffffffff16815260200190815260200160002060008201518160000160006101000a81548160ff021916908360038111156108ce576108cd612b27565b5b02179055509050503373ffffffffffffffffffffffffffffffffffffffff167f54db7a5cb4735e1aac1f53db512d3390390bb6637bd30ad4bf9fc98667d9b9b960405160405180910390a2600191505090565b60008060009054906101000a900473ffffffffffffffffffffffffffffffffffffffff1673ffffffffffffffffffffffffffffffffffffffff163373ffffffffffffffffffffffffffffffffffffffff16146109b2576040517f08c379a00000000000000000000000000000000000000000000000000000000081526004016109a990612f39565b60405180910390fd5b81600060038111156109c7576109c6612b27565b5b600260008373ffffffffffffffffffffffffffffffffffffffff1673ffffffffffffffffffffffffffffffffffffffff16815260200190815260200160002060000160009054906101000a900460ff166003811115610a2957610a28612b27565b5b03610a69576040517f08c379a0000000000000000000000000000000000000000000000000000000008152600401610a6090612ecd565b60405180910390fd5b60028060008573ffffffffffffffffffffffffffffffffffffffff1673ffffffffffffffffffffffffffffffffffffffff16815260200190815260200160002060000160006101000a81548160ff02191690836003811115610ace57610acd612b27565b5b02179055508273ffffffffffffffffffffffffffffffffffffffff167f2dc8105a7545248d0e354c4c6b02fb583071cc719fb4bef1ca74d72d475570bc60405160405180910390a26001915050919050565b60008060009054906101000a900473ffffffffffffffffffffffffffffffffffffffff16905090565b60008054906101000a900473ffffffffffffffffffffffffffffffffffffffff1681565b60008260006003811115610b8457610b83612b27565b5b600260008373ffffffffffffffffffffffffffffffffffffffff1673ffffffffffffffffffffffffffffffffffffffff16815260200190815260200160002060000160009054906101000a900460ff166003811115610be657610be5612b27565b5b03610c26576040517f08c379a0000000000000000000000000000000000000000000000000000000008152600401610c1d90612ecd565b60405180910390fd5b8260006003811115610c3b57610c3a612b27565b5b600260008373ffffffffffffffffffffffffffffffffffffffff1673ffffffffffffffffffffffffffffffffffffffff16815260200190815260200160002060000160009054906101000a900460ff166003811115610c9d57610c9c612b27565b5b03610cdd576040517f08c379a0000000000000000000000000000000000000000000000000000000008152600401610cd490612ecd565b60405180910390fd5b8473ffffffffffffffffffffffffffffffffffffffff163373ffffffffffffffffffffffffffffffffffffffff161480610d4257508373ffffffffffffffffffffffffffffffffffffffff163373ffffffffffffffffffffffffffffffffffffffff16145b610d81576040517f08c379a0000000000000000000000000000000000000000000000000000000008152600401610d7890612fa5565b60405180910390fd5b600460008673ffffffffffffffffffffffffffffffffffffffff1673ffffffffffffffffffffffffffffffffffffffff16815260200190815260200160002060008573ffffffffffffffffffffffffffffffffffffffff1673ffffffffffffffffffffffffffffffffffffffff16815260200190815260200160002060009054906101000a900460ff169250505092915050565b60003360026003811115610e2c57610e2b612b27565b5b600260008373ffffffffffffffffffffffffffffffffffffffff1673ffffffffffffffffffffffffffffffffffffffff16815260200190815260200160002060000160009054906101000a900460ff166003811115610e8e57610e8d612b27565b5b14610ece576040517f08c379a0000000000000000000000000000000000000000000000000000000008152600401610ec590613011565b60405180910390fd5b8360006003811115610ee357610ee2612b27565b5b600260008373ffffffffffffffffffffffffffffffffffffffff1673ffffffffffffffffffffffffffffffffffffffff16815260200190815260200160002060000160009054906101000a900460ff166003811115610f4557610f44612b27565b5b03610f85576040517f08c379a0000000000000000000000000000000000000000000000000000000008152600401610f7c90612ecd565b60405180910390fd5b610f8d61263b565b84816000018190525033816020019073ffffffffffffffffffffffffffffffffffffffff16908173ffffffffffffffffffffffffffffffffffffffff168152505085816040019073ffffffffffffffffffffffffffffffffffffffff16908173ffffffffffffffffffffffffffffffffffffffff168152505042816060018181525050600360008773ffffffffffffffffffffffffffffffffffffffff1673ffffffffffffffffffffffffffffffffffffffff168152602001908152602001600020819080600181540180825580915050600190039060005260206000209060040201600090919091909150600082015181600001908161108e919061323d565b5060208201518160010160006101000a81548173ffffffffffffffffffffffffffffffffffffffff021916908373ffffffffffffffffffffffffffffffffffffffff16021790555060408201518160020160006101000a81548173ffffffffffffffffffffffffffffffffffffffff021916908373ffffffffffffffffffffffffffffffffffffffff1602179055506060820151816003015550506001935050505092915050565b60026020528060005260406000206000915090508060000160009054906101000a900460ff16905081565b6000336000600381111561117857611177612b27565b5b600260008373ffffffffffffffffffffffffffffffffffffffff1673ffffffffffffffffffffffffffffffffffffffff16815260200190815260200160002060000160009054906101000a900460ff1660038111156111da576111d9612b27565b5b0361121a576040517f08c379a000000000000000000000000000000000000000000000000000000000815260040161121190612ecd565b60405180910390fd5b826000600381111561122f5761122e612b27565b5b600260008373ffffffffffffffffffffffffffffffffffffffff1673ffffffffffffffffffffffffffffffffffffffff16815260200190815260200160002060000160009054906101000a900460ff16600381111561129157611290612b27565b5b036112d1576040517f08c379a00000000000000000000000000000000000000000000000000000000081526004016112c890612ecd565b60405180910390fd5b6001600460003373ffffffffffffffffffffffffffffffffffffffff1673ffffffffffffffffffffffffffffffffffffffff16815260200190815260200160002060008673ffffffffffffffffffffffffffffffffffffffff1673ffffffffffffffffffffffffffffffffffffffff16815260200190815260200160002060006101000a81548160ff0219169083151502179055506000600560003373ffffffffffffffffffffffffffffffffffffffff1673ffffffffffffffffffffffffffffffffffffffff16815260200190815260200160002060008673ffffffffffffffffffffffffffffffffffffffff1673ffffffffffffffffffffffffffffffffffffffff16815260200190815260200160002060006101000a81548160ff0219169083151502179055503373ffffffffffffffffffffffffffffffffffffffff168473ffffffffffffffffffffffffffffffffffffffff167f9f520b3bfc56d06f7065d10b4683b3f57ac8895d5026cd176dee95ce1454cb8d60405160405180910390a3600192505050919050565b6060336002600381111561147757611476612b27565b5b600260008373ffffffffffffffffffffffffffffffffffffffff1673ffffffffffffffffffffffffffffffffffffffff16815260200190815260200160002060000160009054906101000a900460ff1660038111156114d9576114d8612b27565b5b14611519576040517f08c379a000000000000000000000000000000000000000000000000000000000815260040161151090613011565b60405180910390fd5b826000600381111561152e5761152d612b27565b5b600260008373ffffffffffffffffffffffffffffffffffffffff1673ffffffffffffffffffffffffffffffffffffffff16815260200190815260200160002060000160009054906101000a900460ff1660038111156115905761158f612b27565b5b036115d0576040517f08c379a00000000000000000000000000000000000000000000000000000000081526004016115c790612ecd565b60405180910390fd5b60011515600460008673ffffffffffffffffffffffffffffffffffffffff1673ffffffffffffffffffffffffffffffffffffffff16815260200190815260200160002060003373ffffffffffffffffffffffffffffffffffffffff1673ffffffffffffffffffffffffffffffffffffffff16815260200190815260200160002060009054906101000a900460ff161515146116a0576040517f08c379a00000000000000000000000000000000000000000000000000000000081526004016116979061335b565b60405180910390fd5b600360008573ffffffffffffffffffffffffffffffffffffffff1673ffffffffffffffffffffffffffffffffffffffff168152602001908152602001600020805480602002602001604051908101604052809291908181526020016000905b82821015611879578382906000526020600020906004020160405180608001604052908160008201805461173290613060565b80601f016020809104026020016040519081016040528092919081815260200182805461175e90613060565b80156117ab5780601f10611780576101008083540402835291602001916117ab565b820191906000526020600020905b81548152906001019060200180831161178e57829003601f168201915b505050505081526020016001820160009054906101000a900473ffffffffffffffffffffffffffffffffffffffff1673ffffffffffffffffffffffffffffffffffffffff1673ffffffffffffffffffffffffffffffffffffffff1681526020016002820160009054906101000a900473ffffffffffffffffffffffffffffffffffffffff1673ffffffffffffffffffffffffffffffffffffffff1673ffffffffffffffffffffffffffffffffffffffff168152602001600382015481525050815260200190600101906116ff565b5050505092505050919050565b6000336000600381111561189d5761189c612b27565b5b600260008373ffffffffffffffffffffffffffffffffffffffff1673ffffffffffffffffffffffffffffffffffffffff16815260200190815260200160002060000160009054906101000a900460ff1660038111156118ff576118fe612b27565b5b0361193f576040517f08c379a000000000000000000000000000000000000000000000000000000000815260040161193690612ecd565b60405180910390fd5b826000600381111561195457611953612b27565b5b600260008373ffffffffffffffffffffffffffffffffffffffff1673ffffffffffffffffffffffffffffffffffffffff16815260200190815260200160002060000160009054906101000a900460ff1660038111156119b6576119b5612b27565b5b036119f6576040517f08c379a00000000000000000000000000000000000000000000000000000000081526004016119ed90612ecd565b60405180910390fd5b6000600460003373ffffffffffffffffffffffffffffffffffffffff1673ffffffffffffffffffffffffffffffffffffffff16815260200190815260200160002060008673ffffffffffffffffffffffffffffffffffffffff1673ffffffffffffffffffffffffffffffffffffffff16815260200190815260200160002060006101000a81548160ff0219169083151502179055503373ffffffffffffffffffffffffffffffffffffffff168473ffffffffffffffffffffffffffffffffffffffff167f825c8be24eb0df19500f63e86c29e7d0d951e73056b889b891d85e40938d9b6e60405160405180910390a3600192505050919050565b60008060009054906101000a900473ffffffffffffffffffffffffffffffffffffffff1673ffffffffffffffffffffffffffffffffffffffff163373ffffffffffffffffffffffffffffffffffffffff1614611b81576040517f08c379a0000000000000000000000000000000000000000000000000000000008152600401611b7890612f39565b60405180910390fd5b8160006003811115611b9657611b95612b27565b5b600260008373ffffffffffffffffffffffffffffffffffffffff1673ffffffffffffffffffffffffffffffffffffffff16815260200190815260200160002060000160009054906101000a900460ff166003811115611bf857611bf7612b27565b5b03611c38576040517f08c379a0000000000000000000000000000000000000000000000000000000008152600401611c2f90612ecd565b60405180910390fd5b611c4061268f565b83816000019073ffffffffffffffffffffffffffffffffffffffff16908173ffffffffffffffffffffffffffffffffffffffff1681525050600067ffffffffffffffff811115611c9357611c926129a0565b5b604051908082528060200260200182016040528015611cc15781602001602082028036833780820191505090505b5081602001819052506003600260008673ffffffffffffffffffffffffffffffffffffffff1673ffffffffffffffffffffffffffffffffffffffff16815260200190815260200160002060000160006101000a81548160ff02191690836003811115611d3057611d2f612b27565b5b021790555080600160008673ffffffffffffffffffffffffffffffffffffffff1673ffffffffffffffffffffffffffffffffffffffff16815260200190815260200160002060008201518160000160006101000a81548173ffffffffffffffffffffffffffffffffffffffff021916908373ffffffffffffffffffffffffffffffffffffffff1602179055506020820151816001019080519060200190611dd89291906126bf565b509050508373ffffffffffffffffffffffffffffffffffffffff167f380355b6fe4f9755ddcef7c5c195edae45bdb34953a41d82386022f3cd5899f060405160405180910390a2600192505050919050565b60008260006003811115611e4157611e40612b27565b5b600260008373ffffffffffffffffffffffffffffffffffffffff1673ffffffffffffffffffffffffffffffffffffffff16815260200190815260200160002060000160009054906101000a900460ff166003811115611ea357611ea2612b27565b5b03611ee3576040517f08c379a0000000000000000000000000000000000000000000000000000000008152600401611eda90612ecd565b60405180910390fd5b8260006003811115611ef857611ef7612b27565b5b600260008373ffffffffffffffffffffffffffffffffffffffff1673ffffffffffffffffffffffffffffffffffffffff16815260200190815260200160002060000160009054906101000a900460ff166003811115611f5a57611f59612b27565b5b03611f9a576040517f08c379a0000000000000000000000000000000000000000000000000000000008152600401611f9190612ecd565b60405180910390fd5b8473ffffffffffffffffffffffffffffffffffffffff163373ffffffffffffffffffffffffffffffffffffffff161480611fff57508373ffffffffffffffffffffffffffffffffffffffff163373ffffffffffffffffffffffffffffffffffffffff16145b61203e576040517f08c379a000000000000000000000000000000000000000000000000000000000815260040161203590612fa5565b60405180910390fd5b600560008673ffffffffffffffffffffffffffffffffffffffff1673ffffffffffffffffffffffffffffffffffffffff16815260200190815260200160002060008573ffffffffffffffffffffffffffffffffffffffff1673ffffffffffffffffffffffffffffffffffffffff16815260200190815260200160002060009054906101000a900460ff169250505092915050565b606033600060038111156120e9576120e8612b27565b5b600260008373ffffffffffffffffffffffffffffffffffffffff1673ffffffffffffffffffffffffffffffffffffffff16815260200190815260200160002060000160009054906101000a900460ff16600381111561214b5761214a612b27565b5b0361218b576040517f08c379a000000000000000000000000000000000000000000000000000000000815260040161218290612ecd565b60405180910390fd5b600360003373ffffffffffffffffffffffffffffffffffffffff1673ffffffffffffffffffffffffffffffffffffffff168152602001908152602001600020805480602002602001604051908101604052809291908181526020016000905b82821015612364578382906000526020600020906004020160405180608001604052908160008201805461221d90613060565b80601f016020809104026020016040519081016040528092919081815260200182805461224990613060565b80156122965780601f1061226b57610100808354040283529160200191612296565b820191906000526020600020905b81548152906001019060200180831161227957829003601f168201915b505050505081526020016001820160009054906101000a900473ffffffffffffffffffffffffffffffffffffffff1673ffffffffffffffffffffffffffffffffffffffff1673ffffffffffffffffffffffffffffffffffffffff1681526020016002820160009054906101000a900473ffffffffffffffffffffffffffffffffffffffff1673ffffffffffffffffffffffffffffffffffffffff1673ffffffffffffffffffffffffffffffffffffffff168152602001600382015481525050815260200190600101906121ea565b5050505091505090565b60016020528060005260406000206000915090508060000160009054906101000a900473ffffffffffffffffffffffffffffffffffffffff16905081565b600033600260038111156123c3576123c2612b27565b5b600260008373ffffffffffffffffffffffffffffffffffffffff1673ffffffffffffffffffffffffffffffffffffffff16815260200190815260200160002060000160009054906101000a900460ff16600381111561242557612424612b27565b5b14612465576040517f08c379a000000000000000000000000000000000000000000000000000000000815260040161245c90613011565b60405180910390fd5b826000600381111561247a57612479612b27565b5b600260008373ffffffffffffffffffffffffffffffffffffffff1673ffffffffffffffffffffffffffffffffffffffff16815260200190815260200160002060000160009054906101000a900460ff1660038111156124dc576124db612b27565b5b0361251c576040517f08c379a000000000000000000000000000000000000000000000000000000000815260040161251390612ecd565b60405180910390fd5b6001600560008673ffffffffffffffffffffffffffffffffffffffff1673ffffffffffffffffffffffffffffffffffffffff16815260200190815260200160002060003373ffffffffffffffffffffffffffffffffffffffff1673ffffffffffffffffffffffffffffffffffffffff16815260200190815260200160002060006101000a81548160ff0219169083151502179055508373ffffffffffffffffffffffffffffffffffffffff163373ffffffffffffffffffffffffffffffffffffffff167f40c7749b16fdfb0d550f20273a7767875059d647af94f5a9610c63ad73dcc79f60405160405180910390a3600192505050919050565b60405180602001604052806000600381111561263557612634612b27565b5b81525090565b604051806080016040528060608152602001600073ffffffffffffffffffffffffffffffffffffffff168152602001600073ffffffffffffffffffffffffffffffffffffffff168152602001600081525090565b6040518060400160405280600073ffffffffffffffffffffffffffffffffffffffff168152602001606081525090565b828054828255906000526020600020908101928215612738579160200282015b828111156127375782518260006101000a81548173ffffffffffffffffffffffffffffffffffffffff021916908373ffffffffffffffffffffffffffffffffffffffff160217905550916020019190600101906126df565b5b5090506127459190612749565b5090565b5b8082111561276257600081600090555060010161274a565b5090565b6000604051905090565b600080fd5b600080fd5b600073ffffffffffffffffffffffffffffffffffffffff82169050919050565b60006127a58261277a565b9050919050565b6127b58161279a565b81146127c057600080fd5b50565b6000813590506127d2816127ac565b92915050565b6000602082840312156127ee576127ed612770565b5b60006127fc848285016127c3565b91505092915050565b60008115159050919050565b61281a81612805565b82525050565b60006020820190506128356000830184612811565b92915050565b600081519050919050565b600082825260208201905092915050565b6000819050602082019050919050565b6128708161279a565b82525050565b60006128828383612867565b60208301905092915050565b6000602082019050919050565b60006128a68261283b565b6128b08185612846565b93506128bb83612857565b8060005b838110156128ec5781516128d38882612876565b97506128de8361288e565b9250506001810190506128bf565b5085935050505092915050565b60006020820190508181036000830152612913818461289b565b905092915050565b6129248161279a565b82525050565b600060208201905061293f600083018461291b565b92915050565b6000806040838503121561295c5761295b612770565b5b600061296a858286016127c3565b925050602061297b858286016127c3565b9150509250929050565b600080fd5b600080fd5b6000601f19601f8301169050919050565b7f4e487b7100000000000000000000000000000000000000000000000000000000600052604160045260246000fd5b6129d88261298f565b810181811067ffffffffffffffff821117156129f7576129f66129a0565b5b80604052505050565b6000612a0a612766565b9050612a1682826129cf565b919050565b600067ffffffffffffffff821115612a3657612a356129a0565b5b612a3f8261298f565b9050602081019050919050565b82818337600083830152505050565b6000612a6e612a6984612a1b565b612a00565b905082815260208101848484011115612a8a57612a8961298a565b5b612a95848285612a4c565b509392505050565b600082601f830112612ab257612ab1612985565b5b8135612ac2848260208601612a5b565b91505092915050565b60008060408385031215612ae257612ae1612770565b5b6000612af0858286016127c3565b925050602083013567ffffffffffffffff811115612b1157612b10612775565b5b612b1d85828601612a9d565b9150509250929050565b7f4e487b7100000000000000000000000000000000000000000000000000000000600052602160045260246000fd5b60048110612b6757612b66612b27565b5b50565b6000819050612b7882612b56565b919050565b6000612b8882612b6a565b9050919050565b612b9881612b7d565b82525050565b6000602082019050612bb36000830184612b8f565b92915050565b600081519050919050565b600082825260208201905092915050565b6000819050602082019050919050565b600081519050919050565b600082825260208201905092915050565b60005b83811015612c1f578082015181840152602081019050612c04565b60008484015250505050565b6000612c3682612be5565b612c408185612bf0565b9350612c50818560208601612c01565b612c598161298f565b840191505092915050565b6000819050919050565b612c7781612c64565b82525050565b60006080830160008301518482036000860152612c9a8282612c2b565b9150506020830151612caf6020860182612867565b506040830151612cc26040860182612867565b506060830151612cd56060860182612c6e565b508091505092915050565b6000612cec8383612c7d565b905092915050565b6000602082019050919050565b6000612d0c82612bb9565b612d168185612bc4565b935083602082028501612d2885612bd5565b8060005b85811015612d645784840389528151612d458582612ce0565b9450612d5083612cf4565b925060208a01995050600181019050612d2c565b50829750879550505050505092915050565b60006020820190508181036000830152612d908184612d01565b905092915050565b600082825260208201905092915050565b7f4e4f545f415f484f53504954414c000000000000000000000000000000000000600082015250565b6000612ddf600e83612d98565b9150612dea82612da9565b602082019050919050565b60006020820190508181036000830152612e0e81612dd2565b9050919050565b7f4e4f545f41444d494e0000000000000000000000000000000000000000000000600082015250565b6000612e4b600983612d98565b9150612e5682612e15565b602082019050919050565b60006020820190508181036000830152612e7a81612e3e565b9050919050565b7f4e4f545f52454749535445524544000000000000000000000000000000000000600082015250565b6000612eb7600e83612d98565b9150612ec282612e81565b602082019050919050565b60006020820190508181036000830152612ee681612eaa565b9050919050565b7f4e4f545f4f574e45520000000000000000000000000000000000000000000000600082015250565b6000612f23600983612d98565b9150612f2e82612eed565b602082019050919050565b60006020820190508181036000830152612f5281612f16565b9050919050565b7f43616e6e6f74206163636573732074686973207265636f726400000000000000600082015250565b6000612f8f601983612d98565b9150612f9a82612f59565b602082019050919050565b60006020820190508181036000830152612fbe81612f82565b9050919050565b7f4e4f545f444f43544f5200000000000000000000000000000000000000000000600082015250565b6000612ffb600a83612d98565b915061300682612fc5565b602082019050919050565b6000602082019050818103600083015261302a81612fee565b9050919050565b7f4e487b7100000000000000000000000000000000000000000000000000000000600052602260045260246000fd5b6000600282049050600182168061307857607f821691505b60208210810361308b5761308a613031565b5b50919050565b60008190508160005260206000209050919050565b60006020601f8301049050919050565b600082821b905092915050565b6000600883026130f37fffffffffffffffffffffffffffffffffffffffffffffffffffffffffffffffff826130b6565b6130fd86836130b6565b95508019841693508086168417925050509392505050565b6000819050919050565b600061313a61313561313084612c64565b613115565b612c64565b9050919050565b6000819050919050565b6131548361311f565b61316861316082613141565b8484546130c3565b825550505050565b600090565b61317d613170565b61318881848461314b565b505050565b5b818110156131ac576131a1600082613175565b60018101905061318e565b5050565b601f8211156131f1576131c281613091565b6131cb846130a6565b810160208510156131da578190505b6131ee6131e6856130a6565b83018261318d565b50505b505050565b600082821c905092915050565b6000613214600019846008026131f6565b1980831691505092915050565b600061322d8383613203565b9150826002028217905092915050565b61324682612be5565b67ffffffffffffffff81111561325f5761325e6129a0565b5b6132698254613060565b6132748282856131b0565b600060209050601f8311600181146132a75760008415613295578287015190505b61329f8582613221565b865550613307565b601f1984166132b586613091565b60005b828110156132dd578489015182556001820191506020850194506020810190506132b8565b868310156132fa57848901516132f6601f891682613203565b8355505b6001600288020188555050505b505050505050565b7f416363657373206e6f74206772616e7465640000000000000000000000000000600082015250565b6000613345601283612d98565b91506133508261330f565b602082019050919050565b6000602082019050818103600083015261337481613338565b905091905056fea264697066735822122044471345adfcc7d2056dc20ff8b85c01fe5913c7838be4131baa701c37dd635d64736f6c63430008120033",
  "linkReferences": {},
  "deployedLinkReferences": {}
}